{
  "address": "0x9fE46736679d2D9a65F0992F2272dE9f3c7fa6e0",
  "abi": [
    {
      "inputs": [
        {
          "internalType": "address",
          "name": "_priceFeed",
          "type": "address"
        }
      ],
      "stateMutability": "nonpayable",
      "type": "constructor"
    },
    {
      "inputs": [],
      "name": "NotOwner",
      "type": "error"
    },
    {
      "stateMutability": "payable",
      "type": "fallback"
    },
    {
      "inputs": [],
      "name": "MIN_AMT",
      "outputs": [
        {
          "internalType": "uint256",
          "name": "",
          "type": "uint256"
        }
      ],
      "stateMutability": "view",
      "type": "function"
    },
    {
      "inputs": [],
      "name": "fund",
      "outputs": [],
      "stateMutability": "payable",
      "type": "function"
    },
    {
      "inputs": [
        {
          "internalType": "address",
          "name": "funder",
          "type": "address"
        }
      ],
      "name": "getAmountDonated",
      "outputs": [
        {
          "internalType": "uint256",
          "name": "",
          "type": "uint256"
        }
      ],
      "stateMutability": "view",
      "type": "function"
    },
    {
      "inputs": [
        {
          "internalType": "uint256",
          "name": "idx",
          "type": "uint256"
        }
      ],
      "name": "getFunder",
      "outputs": [
        {
          "internalType": "address",
          "name": "",
          "type": "address"
        }
      ],
      "stateMutability": "view",
      "type": "function"
    },
    {
      "inputs": [],
      "name": "getOwner",
      "outputs": [
        {
          "internalType": "address",
          "name": "",
          "type": "address"
        }
      ],
      "stateMutability": "view",
      "type": "function"
    },
    {
      "inputs": [],
      "name": "getPriceFeedAddr",
      "outputs": [
        {
          "internalType": "contract AggregatorV3Interface",
          "name": "",
          "type": "address"
        }
      ],
      "stateMutability": "view",
      "type": "function"
    },
    {
      "inputs": [],
      "name": "withdraw",
      "outputs": [],
      "stateMutability": "payable",
      "type": "function"
    },
    {
      "stateMutability": "payable",
      "type": "receive"
    }
  ],
  "transactionHash": "0xce8a4e8c33da52cf81ccee7159afaf98d8c0b481918c418dd6786453632d4f33",
  "args": [
    "0x5FbDB2315678afecb367f032d93F642f64180aa3"
  ],
  "numDeployments": 1,
  "solcInputHash": "7ac080534af60515ba10a243db693c3b",
  "bytecode": "0x60a060405234801561001057600080fd5b50604051610d5e380380610d5e83398181016040528101906100329190610110565b3373ffffffffffffffffffffffffffffffffffffffff1660808173ffffffffffffffffffffffffffffffffffffffff168152505080600260006101000a81548173ffffffffffffffffffffffffffffffffffffffff021916908373ffffffffffffffffffffffffffffffffffffffff1602179055505061013d565b600080fd5b600073ffffffffffffffffffffffffffffffffffffffff82169050919050565b60006100dd826100b2565b9050919050565b6100ed816100d2565b81146100f857600080fd5b50565b60008151905061010a816100e4565b92915050565b600060208284031215610126576101256100ad565b5b6000610134848285016100fb565b91505092915050565b608051610bff61015f6000396000818161035d01526105c90152610bff6000f3fe6080604052600436106100745760003560e01c8063893d20e81161004e578063893d20e8146100ed578063999bc52414610118578063b60d428814610155578063d7b4750c1461015f57610083565b80632c3721bf1461008d5780633ccfd60b146100b857806355bd6c81146100c257610083565b366100835761008161019c565b005b61008b61019c565b005b34801561009957600080fd5b506100a261034e565b6040516100af919061073d565b60405180910390f35b6100c061035b565b005b3480156100ce57600080fd5b506100d761059b565b6040516100e491906107d7565b60405180910390f35b3480156100f957600080fd5b506101026105c5565b60405161010f9190610813565b60405180910390f35b34801561012457600080fd5b5061013f600480360381019061013a919061085f565b6105ed565b60405161014c919061073d565b60405180910390f35b61015d61019c565b005b34801561016b57600080fd5b50610186600480360381019061018191906108b8565b610635565b6040516101939190610813565b60405180910390f35b6802b5e3af16b18800003473e7f1725E7734CE288F8367e1Bb143E90bb3F051263810f0ed39091600260009054906101000a900473ffffffffffffffffffffffffffffffffffffffff166040518363ffffffff1660e01b8152600401610203929190610903565b60206040518083038186803b15801561021b57600080fd5b505af415801561022f573d6000803e3d6000fd5b505050506040513d601f19601f820116820180604052508101906102539190610941565b1015610294576040517f08c379a000000000000000000000000000000000000000000000000000000000815260040161028b906109cb565b60405180910390fd5b346000803373ffffffffffffffffffffffffffffffffffffffff1673ffffffffffffffffffffffffffffffffffffffff16815260200190815260200160002060008282546102e29190610a1a565b925050819055506001339080600181540180825580915050600190039060005260206000200160009091909190916101000a81548173ffffffffffffffffffffffffffffffffffffffff021916908373ffffffffffffffffffffffffffffffffffffffff160217905550565b6802b5e3af16b188000081565b7f000000000000000000000000000000000000000000000000000000000000000073ffffffffffffffffffffffffffffffffffffffff163373ffffffffffffffffffffffffffffffffffffffff16146103e0576040517f30cd747100000000000000000000000000000000000000000000000000000000815260040160405180910390fd5b60005b60018054905081101561048b5760006001828154811061040657610405610a70565b5b9060005260206000200160009054906101000a900473ffffffffffffffffffffffffffffffffffffffff16905060008060008373ffffffffffffffffffffffffffffffffffffffff1673ffffffffffffffffffffffffffffffffffffffff1681526020019081526020016000208190555050808061048390610a9f565b9150506103e3565b50600067ffffffffffffffff8111156104a7576104a6610ae8565b5b6040519080825280602002602001820160405280156104d55781602001602082028036833780820191505090505b50600190805190602001906104eb92919061067d565b5060003373ffffffffffffffffffffffffffffffffffffffff164760405161051290610b48565b60006040518083038185875af1925050503d806000811461054f576040519150601f19603f3d011682016040523d82523d6000602084013e610554565b606091505b5050905080610598576040517f08c379a000000000000000000000000000000000000000000000000000000000815260040161058f90610ba9565b60405180910390fd5b50565b6000600260009054906101000a900473ffffffffffffffffffffffffffffffffffffffff16905090565b60007f0000000000000000000000000000000000000000000000000000000000000000905090565b60008060008373ffffffffffffffffffffffffffffffffffffffff1673ffffffffffffffffffffffffffffffffffffffff168152602001908152602001600020549050919050565b60006001828154811061064b5761064a610a70565b5b9060005260206000200160009054906101000a900473ffffffffffffffffffffffffffffffffffffffff169050919050565b8280548282559060005260206000209081019282156106f6579160200282015b828111156106f55782518260006101000a81548173ffffffffffffffffffffffffffffffffffffffff021916908373ffffffffffffffffffffffffffffffffffffffff1602179055509160200191906001019061069d565b5b5090506107039190610707565b5090565b5b80821115610720576000816000905550600101610708565b5090565b6000819050919050565b61073781610724565b82525050565b6000602082019050610752600083018461072e565b92915050565b600073ffffffffffffffffffffffffffffffffffffffff82169050919050565b6000819050919050565b600061079d61079861079384610758565b610778565b610758565b9050919050565b60006107af82610782565b9050919050565b60006107c1826107a4565b9050919050565b6107d1816107b6565b82525050565b60006020820190506107ec60008301846107c8565b92915050565b60006107fd82610758565b9050919050565b61080d816107f2565b82525050565b60006020820190506108286000830184610804565b92915050565b600080fd5b61083c816107f2565b811461084757600080fd5b50565b60008135905061085981610833565b92915050565b6000602082840312156108755761087461082e565b5b60006108838482850161084a565b91505092915050565b61089581610724565b81146108a057600080fd5b50565b6000813590506108b28161088c565b92915050565b6000602082840312156108ce576108cd61082e565b5b60006108dc848285016108a3565b91505092915050565b6108ee81610724565b82525050565b6108fd816107b6565b82525050565b600060408201905061091860008301856108e5565b61092560208301846108f4565b9392505050565b60008151905061093b8161088c565b92915050565b6000602082840312156109575761095661082e565b5b60006109658482850161092c565b91505092915050565b600082825260208201905092915050565b7f506c656173652066756e64206d6f726500000000000000000000000000000000600082015250565b60006109b560108361096e565b91506109c08261097f565b602082019050919050565b600060208201905081810360008301526109e4816109a8565b9050919050565b7f4e487b7100000000000000000000000000000000000000000000000000000000600052601160045260246000fd5b6000610a2582610724565b9150610a3083610724565b9250827fffffffffffffffffffffffffffffffffffffffffffffffffffffffffffffffff03821115610a6557610a646109eb565b5b828201905092915050565b7f4e487b7100000000000000000000000000000000000000000000000000000000600052603260045260246000fd5b6000610aaa82610724565b91507fffffffffffffffffffffffffffffffffffffffffffffffffffffffffffffffff821415610add57610adc6109eb565b5b600182019050919050565b7f4e487b7100000000000000000000000000000000000000000000000000000000600052604160045260246000fd5b600081905092915050565b50565b6000610b32600083610b17565b9150610b3d82610b22565b600082019050919050565b6000610b5382610b25565b9150819050919050565b7f57697464726177206661696c6564000000000000000000000000000000000000600082015250565b6000610b93600e8361096e565b9150610b9e82610b5d565b602082019050919050565b60006020820190508181036000830152610bc281610b86565b905091905056fea2646970667358221220953b1c1a4314acc31b3021fe4eef8489c79e02d6cc999f5eefa3dff714e6a73664736f6c63430008090033",
  "deployedBytecode": "0x6080604052600436106100745760003560e01c8063893d20e81161004e578063893d20e8146100ed578063999bc52414610118578063b60d428814610155578063d7b4750c1461015f57610083565b80632c3721bf1461008d5780633ccfd60b146100b857806355bd6c81146100c257610083565b366100835761008161019c565b005b61008b61019c565b005b34801561009957600080fd5b506100a261034e565b6040516100af919061073d565b60405180910390f35b6100c061035b565b005b3480156100ce57600080fd5b506100d761059b565b6040516100e491906107d7565b60405180910390f35b3480156100f957600080fd5b506101026105c5565b60405161010f9190610813565b60405180910390f35b34801561012457600080fd5b5061013f600480360381019061013a919061085f565b6105ed565b60405161014c919061073d565b60405180910390f35b61015d61019c565b005b34801561016b57600080fd5b50610186600480360381019061018191906108b8565b610635565b6040516101939190610813565b60405180910390f35b6802b5e3af16b18800003473__$e830a987a16702cb153df44c9cbab05668$__63810f0ed39091600260009054906101000a900473ffffffffffffffffffffffffffffffffffffffff166040518363ffffffff1660e01b8152600401610203929190610903565b60206040518083038186803b15801561021b57600080fd5b505af415801561022f573d6000803e3d6000fd5b505050506040513d601f19601f820116820180604052508101906102539190610941565b1015610294576040517f08c379a000000000000000000000000000000000000000000000000000000000815260040161028b906109cb565b60405180910390fd5b346000803373ffffffffffffffffffffffffffffffffffffffff1673ffffffffffffffffffffffffffffffffffffffff16815260200190815260200160002060008282546102e29190610a1a565b925050819055506001339080600181540180825580915050600190039060005260206000200160009091909190916101000a81548173ffffffffffffffffffffffffffffffffffffffff021916908373ffffffffffffffffffffffffffffffffffffffff160217905550565b6802b5e3af16b188000081565b7f000000000000000000000000000000000000000000000000000000000000000073ffffffffffffffffffffffffffffffffffffffff163373ffffffffffffffffffffffffffffffffffffffff16146103e0576040517f30cd747100000000000000000000000000000000000000000000000000000000815260040160405180910390fd5b60005b60018054905081101561048b5760006001828154811061040657610405610a70565b5b9060005260206000200160009054906101000a900473ffffffffffffffffffffffffffffffffffffffff16905060008060008373ffffffffffffffffffffffffffffffffffffffff1673ffffffffffffffffffffffffffffffffffffffff1681526020019081526020016000208190555050808061048390610a9f565b9150506103e3565b50600067ffffffffffffffff8111156104a7576104a6610ae8565b5b6040519080825280602002602001820160405280156104d55781602001602082028036833780820191505090505b50600190805190602001906104eb92919061067d565b5060003373ffffffffffffffffffffffffffffffffffffffff164760405161051290610b48565b60006040518083038185875af1925050503d806000811461054f576040519150601f19603f3d011682016040523d82523d6000602084013e610554565b606091505b5050905080610598576040517f08c379a000000000000000000000000000000000000000000000000000000000815260040161058f90610ba9565b60405180910390fd5b50565b6000600260009054906101000a900473ffffffffffffffffffffffffffffffffffffffff16905090565b60007f0000000000000000000000000000000000000000000000000000000000000000905090565b60008060008373ffffffffffffffffffffffffffffffffffffffff1673ffffffffffffffffffffffffffffffffffffffff168152602001908152602001600020549050919050565b60006001828154811061064b5761064a610a70565b5b9060005260206000200160009054906101000a900473ffffffffffffffffffffffffffffffffffffffff169050919050565b8280548282559060005260206000209081019282156106f6579160200282015b828111156106f55782518260006101000a81548173ffffffffffffffffffffffffffffffffffffffff021916908373ffffffffffffffffffffffffffffffffffffffff1602179055509160200191906001019061069d565b5b5090506107039190610707565b5090565b5b80821115610720576000816000905550600101610708565b5090565b6000819050919050565b61073781610724565b82525050565b6000602082019050610752600083018461072e565b92915050565b600073ffffffffffffffffffffffffffffffffffffffff82169050919050565b6000819050919050565b600061079d61079861079384610758565b610778565b610758565b9050919050565b60006107af82610782565b9050919050565b60006107c1826107a4565b9050919050565b6107d1816107b6565b82525050565b60006020820190506107ec60008301846107c8565b92915050565b60006107fd82610758565b9050919050565b61080d816107f2565b82525050565b60006020820190506108286000830184610804565b92915050565b600080fd5b61083c816107f2565b811461084757600080fd5b50565b60008135905061085981610833565b92915050565b6000602082840312156108755761087461082e565b5b60006108838482850161084a565b91505092915050565b61089581610724565b81146108a057600080fd5b50565b6000813590506108b28161088c565b92915050565b6000602082840312156108ce576108cd61082e565b5b60006108dc848285016108a3565b91505092915050565b6108ee81610724565b82525050565b6108fd816107b6565b82525050565b600060408201905061091860008301856108e5565b61092560208301846108f4565b9392505050565b60008151905061093b8161088c565b92915050565b6000602082840312156109575761095661082e565b5b60006109658482850161092c565b91505092915050565b600082825260208201905092915050565b7f506c656173652066756e64206d6f726500000000000000000000000000000000600082015250565b60006109b560108361096e565b91506109c08261097f565b602082019050919050565b600060208201905081810360008301526109e4816109a8565b9050919050565b7f4e487b7100000000000000000000000000000000000000000000000000000000600052601160045260246000fd5b6000610a2582610724565b9150610a3083610724565b9250827fffffffffffffffffffffffffffffffffffffffffffffffffffffffffffffffff03821115610a6557610a646109eb565b5b828201905092915050565b7f4e487b7100000000000000000000000000000000000000000000000000000000600052603260045260246000fd5b6000610aaa82610724565b91507fffffffffffffffffffffffffffffffffffffffffffffffffffffffffffffffff821415610add57610adc6109eb565b5b600182019050919050565b7f4e487b7100000000000000000000000000000000000000000000000000000000600052604160045260246000fd5b600081905092915050565b50565b6000610b32600083610b17565b9150610b3d82610b22565b600082019050919050565b6000610b5382610b25565b9150819050919050565b7f57697464726177206661696c6564000000000000000000000000000000000000600082015250565b6000610b93600e8361096e565b9150610b9e82610b5d565b602082019050919050565b60006020820190508181036000830152610bc281610b86565b905091905056fea2646970667358221220953b1c1a4314acc31b3021fe4eef8489c79e02d6cc999f5eefa3dff714e6a73664736f6c63430008090033",
  "libraries": {
    "priceConverter": "0xe7f1725E7734CE288F8367e1Bb143E90bb3F0512"
  },
  "devdoc": {
    "kind": "dev",
    "methods": {},
    "version": 1
  },
  "userdoc": {
    "kind": "user",
    "methods": {},
    "version": 1
  },
  "storageLayout": {
    "storage": [
      {
        "astId": 67,
        "contract": "contracts/FundMe.sol:FundMe",
        "label": "s_amtDonated",
        "offset": 0,
        "slot": "0",
        "type": "t_mapping(t_address,t_uint256)"
      },
      {
        "astId": 70,
        "contract": "contracts/FundMe.sol:FundMe",
        "label": "s_funders",
        "offset": 0,
        "slot": "1",
        "type": "t_array(t_address)dyn_storage"
      },
      {
        "astId": 73,
        "contract": "contracts/FundMe.sol:FundMe",
        "label": "s_priceFeedAddr",
        "offset": 0,
        "slot": "2",
        "type": "t_contract(AggregatorV3Interface)45"
      }
    ],
    "types": {
      "t_address": {
        "encoding": "inplace",
        "label": "address",
        "numberOfBytes": "20"
      },
      "t_array(t_address)dyn_storage": {
        "base": "t_address",
        "encoding": "dynamic_array",
        "label": "address[]",
        "numberOfBytes": "32"
      },
      "t_contract(AggregatorV3Interface)45": {
        "encoding": "inplace",
        "label": "contract AggregatorV3Interface",
        "numberOfBytes": "20"
      },
      "t_mapping(t_address,t_uint256)": {
        "encoding": "mapping",
        "key": "t_address",
        "label": "mapping(address => uint256)",
        "numberOfBytes": "32",
        "value": "t_uint256"
      },
      "t_uint256": {
        "encoding": "inplace",
        "label": "uint256",
        "numberOfBytes": "32"
      }
    }
  }
}