{
  "address": "0xe7f1725E7734CE288F8367e1Bb143E90bb3F0512",
  "abi": [
    {
      "inputs": [
        {
          "internalType": "uint256",
          "name": "amt",
          "type": "uint256"
        },
        {
          "internalType": "contract AggregatorV3Interface",
          "name": "addr",
          "type": "AggregatorV3Interface"
        }
      ],
      "name": "toUsd",
      "outputs": [
        {
          "internalType": "uint256",
          "name": "",
          "type": "uint256"
        }
      ],
      "stateMutability": "view",
      "type": "function"
    }
  ],
  "transactionHash": "0xd56346e98f1cf5ec1d27534a38b6f285b41b6d9b4105693f45a75fd62b7a57cb",
  "args": [],
  "numDeployments": 1,
  "solcInputHash": "90107bd85475dfb7ffa5d00cc0ce3176",
  "bytecode": "0x61057c610053600b82828239805160001a607314610046577f4e487b7100000000000000000000000000000000000000000000000000000000600052600060045260246000fd5b30600052607381538281f3fe73000000000000000000000000000000000000000030146080604052600436106100355760003560e01c8063810f0ed31461003a575b600080fd5b610054600480360381019061004f91906101d4565b61006a565b6040516100619190610223565b60405180910390f35b6000808273ffffffffffffffffffffffffffffffffffffffff1663feaf968c6040518163ffffffff1660e01b815260040160a06040518083038186803b1580156100b357600080fd5b505afa1580156100c7573d6000803e3d6000fd5b505050506040513d601f19601f820116820180604052508101906100eb91906102cb565b505050915050670de0b6b3a7640000846402540be4008361010c9190610375565b610116919061048c565b6101209190610515565b91505092915050565b600080fd5b6000819050919050565b6101418161012e565b811461014c57600080fd5b50565b60008135905061015e81610138565b92915050565b600073ffffffffffffffffffffffffffffffffffffffff82169050919050565b600061018f82610164565b9050919050565b60006101a182610184565b9050919050565b6101b181610196565b81146101bc57600080fd5b50565b6000813590506101ce816101a8565b92915050565b600080604083850312156101eb576101ea610129565b5b60006101f98582860161014f565b925050602061020a858286016101bf565b9150509250929050565b61021d8161012e565b82525050565b60006020820190506102386000830184610214565b92915050565b600069ffffffffffffffffffff82169050919050565b61025d8161023e565b811461026857600080fd5b50565b60008151905061027a81610254565b92915050565b6000819050919050565b61029381610280565b811461029e57600080fd5b50565b6000815190506102b08161028a565b92915050565b6000815190506102c581610138565b92915050565b600080600080600060a086880312156102e7576102e6610129565b5b60006102f58882890161026b565b9550506020610306888289016102a1565b9450506040610317888289016102b6565b9350506060610328888289016102b6565b92505060806103398882890161026b565b9150509295509295909350565b7f4e487b7100000000000000000000000000000000000000000000000000000000600052601160045260246000fd5b600061038082610280565b915061038b83610280565b9250827f7fffffffffffffffffffffffffffffffffffffffffffffffffffffffffffffff04821160008413600084131616156103ca576103c9610346565b5b817f8000000000000000000000000000000000000000000000000000000000000000058312600084126000841316161561040757610406610346565b5b827f8000000000000000000000000000000000000000000000000000000000000000058212600084136000841216161561044457610443610346565b5b827f7fffffffffffffffffffffffffffffffffffffffffffffffffffffffffffffff058212600084126000841216161561048157610480610346565b5b828202905092915050565b60006104978261012e565b91506104a28361012e565b9250817fffffffffffffffffffffffffffffffffffffffffffffffffffffffffffffffff04831182151516156104db576104da610346565b5b828202905092915050565b7f4e487b7100000000000000000000000000000000000000000000000000000000600052601260045260246000fd5b60006105208261012e565b915061052b8361012e565b92508261053b5761053a6104e6565b5b82820490509291505056fea2646970667358221220e8bc9c18d88f4b44c3e8a05abaf182e70944a98dba002a536d9948e29dae1fb964736f6c63430008090033",
  "devdoc": {
    "kind": "dev",
    "methods": {},
    "version": 1
  },
  "userdoc": {
    "kind": "user",
    "methods": {},
    "version": 1
  },
  "storageLayout": {
    "storage": [],
    "types": null
  }
}